S015000061726475696E6F5F6D657465722E73726563A1
S11300000C940A070C941A0C0C94470C0C943207A9
S11300100C9432070C9432070C9432070C94BE0BE8
S11300200C9432070C9432070C9432070C94320768
S11300300C9432070C9432070C9432070C94320758
S11300400C94740C0C9432070C9479080C94AB083F
S11300500C9432070C9486170C9432070C943207D4
S11300600C9479150C943207020000000800020178
S11300700000030407000000000000000001020467
S11300800810204080010204081020010204081016
S1130090200404040404040404020202020202030D
S11300A0030303030300000000250028002B00FFC6
S11300B0E0FFD1AFFF32FFD0FFFEFFE0FFD1AEFF84
S11300C0D0FFFEFFE0FFD11000FFFEFFD0FFE0FFF6
S11300D0C1FFD1AED580A83FD300408D142000A12C
S11300E0C8DA1281CFD9F1DB402EA4A6AFFFD0FF2E
S11300F0FE000D15FEFA0901DE042020FFFD0CFCB4
S11301000AFD000000090001020909090300C0C03A
S1130110C0C0C08000C0C0050404090206D8D8D8F5
S113012048070B0B0901FF282828FE2828FE282849
S11301302828060C0C0901FF30307CCCC0F03C0CA4
S1130140CCF83030070A0A0901006090926C106004
S113015098242418070808090100386060307ACC14
S1130160CC76020404090305C0C0C040040B0B098B
S113017002FE306060C0C0C0C0C0606030040B0BC1
S11301800902FEC0606030303030306060C0050568
S11301900509020420A8F870D8070707090101100F
S11301A01010FE1010100304040902FE6060C080E9
S11301B0060101090104FC020202090300C0C00790
S11301C00C0C0900FE06060C0C181830306060C0D8
S11301D0C0070A0A090100386CC6C6C6C6C6C66C82
S11301E038060A0A09020030F0303030303030303E
S11301F0FC060A0A09010078CCCC0C0C183060C04B
S1130200FC060A0A09010078CC0C0C380C0C0CCC46
S113021078070A0A0901000C1C3C2C4CCC8CFE0CFF
S11302201E060A0A090100FCC0C0F8CC0C0C0CCC58
S113023078060A0A0901003C60C0D8ECCCCCCCCCCE
S113024078060A0A090100FC8C0C181818183030BA
S113025030060A0A09010078CCCCCC78CCCCCCCCC2
S113026078060A0A09010078CCCCCCCCCC7C0C18DA
S1130270F0020707090300C0C0000000C0C0030962
S1130280090902FE60600000006060C08008070782
S1130290090001071C70C0701C070704040901024F
S11302A0FE0000FE080707090101E0380E030E38BE
S11302B0E0060909090100F8CC8C0C383000303014
S11302C007090909010078C49CB4A4B49EC0780944
S11302D009120900007C001C00360036002200636D
S11302E0007F006300F780080909090000FE6363CA
S11302F0637E636363FE0709090901003A66C6C0A9
S1130300C0C0C0663C080909090000FC6663636359
S1130310636366FC080909090000FF636368786881
S11303206363FF080909090000FF63636878686074
S113033060F80909120900003D006700C300C0000D
S1130340C000CF80C30063003F0009091209000008
S1130350F7806300630063007F0063006300630051
S1130360F780060909090100FC30303030303030A4
S1130370FC0909120900001F800600060006000699
S113038000C600C600C6007C00090912090000F777
S11303900066006C0078007C00660066006300F371
S11303A080080909090000F860606060636363FF06
S11303B0090912090000E3806300770077006B00ED
S11303C06B0063006300F780090912090000E780ED
S11303D06300730073006B006B0067006700F30039
S11303E00809090900003C66C3C3C3C3C3663C08CB
S11303F00909090000FE636363667C6060F8080B0A
S11304000B0900FE3C66C3C3C3C3C3663C196E0933
S11304100912090000FE0063006300630066007CAB
S11304200066006300F3800709090901007ACEC65B
S1130430E07C0EC6E6BC080909090000FFDBDB18F6
S1130440181818183C090912090000F780630063A2
S113045000630063006300630063003E0009091247
S1130460090000F78063006300630036003600363D
S1130470001C001C00090912090000F78063006BCE
S1130480006B006B007700770063006300080909C4
S1130490090000E766663C183C6666E70A0912092B
S11304A0FF00F3C06180330033001E000C000C0019
S11304B00C003F00070909090100FEC6CC181830DA
S11304C066C6FE040B0B0902FEF0C0C0C0C0C0C06B
S11304D0C0C0C0F0070C0C0901FEC0C06060303021
S11304E018180C0C0606040B0B0902FEF030303011
S11304F0303030303030F00504040902052070D863
S1130500880901020900FEFF80030202090207C0F4
S1130510600807070900007C06067EC6CE77080A35
S11305200A090000E060606E7363636373EE08079A
S1130530070900003D67C3C0C0633E080A0A0900FA
S1130540000E060676CEC6C6C6CE77080707090093
S1130550003C66C3FFC0673E070A0A0901001E305B
S113056030FC3030303030FC080A0A0900FD77CE08
S1130570C6C6C6CE7606067C090A14090000E00049
S1130580600060006E00730063006300630063003A
S1130590F780060A0A090100303000F030303030AC
S11305A030FC050D0D0901FD1818007818181818ED
S11305B018181818F0080A0A090000E06060676C4F
S11305C078786C66E7060A0A090100F030303030AA
S11305D030303030FC09070E090000DF006D806DFB
S11305E0806D806D806D80ED8009070E090000EE3E
S11305F00073006300630063006300F7800807076B
S11306000900003C66C3C3C3663C080A0A0900FD2E
S1130610EE73636363736E6060F0080A0A0900FD99
S113062077CEC6C6C6CE7606060F070707090100B1
S1130630EE7060606060FC0707070901007EC6C0B9
S11306407C06C6FC0709090901006060FC60606063
S113065060663C09070E090000E70063006300635D
S113066000630067003B8009070E090000F7806300
S1130670006300360036001C001C000A070E09FF48
S113068000E1C06D806D806D802D00330033000863
S11306900707090000E7663C183C66E7090A1409E5
S11306A000FDE38063006300360036001C001C007C
S11306B0180018007C00060707090100FC8C18309C
S11306C060C4FC040B0B0902FE3060606060C06013
S11306D060606030020B0B0903FEC0C0C0C0C0C024
S11306E0C0C0C0C0C0040B0B0902FEC060606060E3
S11306F03060606060C006030309010364FC98FF76
S1130700FFFFFFFFFFFFFFFFFFFFFFFFFFFFFFFFF5
S1130710FFFFFFFFFFFFFFFFFFFFFFFFFFFFFFFFE5
S11307200000000900010209090903FEC0C000809D
S1130730C0C0C0C0C0060A0A0901FF30307CCCC06A
S1130740C0CC7830300709090901003C666060F8C4
S1130750606066FC070606090101C67CC6C67CC645
S11307600A0912090000F3C0618033001E003F0033
S11307700C003F000C003F00020B0B0903FEC0C03D
S1130780C0C0C000C0C0C0C0C0080B0B0900FF3E01
S11307906260F08CE3390F06467C04020209020809
S11307A090900908100900011C006300CD80D180DD
S11307B0D180CD8063001C00050707090202701870
S11307C078D86800F8070505090101366CD86C363D
S11307D0070303090102FE0202060101090104FCE8
S11307E00908100900013E006300D980D580D98032
S11307F0D58063003E00040101090208F0040404EA
S1130800090205609090600707070901011010FEB6
S1130810101000FE0506060902047098183060F8EE
S1130820050606090204709830189870030202093C
S1130830030760C0090A140900FDE70063006300B0
S11308406300630067007B80600060006000070B4A
S11308500B0901FF7ED49494D474141414147E02EE
S11308600202090303C0C00304040902FD4060201E
S1130870E004060609030460E0606060F005070711
S113088009020270D888D87000F80705050901012B
S1130890D86C366CD8090A140900006000E0806145
S11308A00062006500FB0017002B004F80830009E5
S11308B00A140900006000E080610062006700FD26
S11308C0801180230046000F800A0A1409FF00707B
S11308D0009840308019009A8075800B801580271D
S11308E0C041800609090901FE3030003070C0C4DF
S11308F0CC7C090C1809000018000C0000007C00D6
S11309001C0036003600220063007F006300F7807D
S1130910090C180900000C00180000007C001C00E1
S113092036003600220063007F006300F780090C64
S1130930180900001C00360000007C001C00360072
S11309403600220063007F006300F780090C180959
S113095000001A002C0000007C001C003600360049
S1130960220063007F006300F780090C180900006F
S11309702400240000007C001C0036003600220005
S113098063007F006300F780090C18090000180059
S1130990240018007E001C0036003600220063008C
S11309A07F006300F7800909120900003F801C8062
S11309B01C003D002F006D007C004C80DF80070D83
S11309C00D0901FC3A6EC6C0C0C0C0663C101808D0
S11309D038080C0C090000180C00FF636368786881
S11309E06363FF080C0C0900000C1800FF636368C4
S11309F078686363FF080C0C0900001C3600FF6371
S1130A00636878686363FF080C0C09000024240001
S1130A10FF63636878686363FF060C0C0901006078
S1130A203000FC30303030303030FC060C0C090122
S1130A3000183000FC30303030303030FC060C0C04
S1130A40090100386C00FC30303030303030FC06A6
S1130A500C0C090100484800FC3030303030303094
S1130A60FC080909090000FC666363F3636366FC20
S1130A70090C180900001A002C000000E78063002C
S1130A80730073006B006B0067006700F300080CD1
S1130A900C0900003018003C66C3C3C3C3C3663CE2
S1130AA0080C0C0900000C18003C66C3C3C3C3C384
S1130AB0663C080C0C090000386C003C66C3C3C3D8
S1130AC0C3C3663C080C0C0900003458003C66C3E0
S1130AD0C3C3C3C3663C080C0C0900002424003CB7
S1130AE066C3C3C3C3C3663C06070709010184CCBC
S1130AF0783078CC84080A0A090000013E66CBCB22
S1130B00D3D3E366BC090C1809000018000C0000DC
S1130B1000F78063006300630063006300630063A5
S1130B20003E00090C180900000C0018000000F732
S1130B308063006300630063006300630063003E3E
S1130B4000090C180900001C0036000000F780633F
S1130B50006300630063006300630063003E0009F8
S1130B600C18090000120012000000F780630063F3
S1130B7000630063006300630063003E000A0C1816
S1130B8009FF0006000C000000F3C061803300334D
S1130B90001E000C000C000C003F000809090900AD
S1130BA000F0607E6363667C60F008090909000058
S1130BB03C66666C6663636BEE080A0A09000030E3
S1130BC018007C06067EC6CE77080A0A0900000CC7
S1130BD018007C06067EC6CE77080A0A090000388B
S1130BE06C007C06067EC6CE77080A0A090000342B
S1130BF058007C06067EC6CE77080A0A090000243F
S1130C0024007C06067EC6CE77080A0A090000186E
S1130C1024187C06067EC6CE7709070E09000077E5
S1130C20001D8008807F80C800CD807700080B0BF2
S1130C300900FC3D67C3C0C0633E10180838080AA9
S1130C400A0900003018003C66C3FFC0673E080A6A
S1130C500A0900000C18003C66C3FFC0673E080A7E
S1130C600A0900001C36003C66C3FFC0673E080A40
S1130C700A0900002424003C66C3FFC0673E060A3C
S1130C800A090100603000F03030303030FC060AD0
S1130C900A090100183000F03030303030FC060A08
S1130CA00A09010070D800F03030303030FC060AF8
S1130CB00A090100484800F03030303030FC080A9E
S1130CC00A090000EC38CC3E66C3C3C3663C090A7B
S1130CD0140900001A002C000000EE0073006300E9
S1130CE0630063006300F780080A0A0900003018F3
S1130CF0003C66C3C3C3663C080A0A0900000C181A
S1130D00003C66C3C3C3663C080A0A0900001C36DB
S1130D10003C66C3C3C3663C080A0A090000345891
S1130D20003C66C3C3C3663C080A0A0900002424C5
S1130D30003C66C3C3C3663C0807070900011818D2
S1130D4000FF0018180807070900003D66CFDBF311
S1130D5066BC090A1409000018000C000000E70032
S1130D60630063006300630067003B80090A1409A1
S1130D7000000C0018000000E7006300630063003B
S1130D80630067003B80090A140900001C00360058
S1130D900000E700630063006300630067003B80BA
S1130DA0090A14090000240024000000E70063007D
S1130DB063006300630067003B80090D1A0900FDAE
S1130DC006000C000000E380630063003600360078
S1130DD01C001C00180018007C00080C0C0900FD05
S1130DE0E0606E73636363736E6060F0090D1A09EB
S1130DF000FD120012000000E3806300630036006F
S1130E0036001C001C00180018007C00DB0859097F
S1130E103D173A1911241FBECFEFD8E0DEBFCDBF76
S1130E2011E0A0E0B1E0E8E3F7E302C005900D9221
S1130E30AA38B107D9F723E0AAE8B1E001C01D92AE
S1130E40A93CB207E1F71EE0C4E1DEE004C022974A
S1130E50FE010E94961BCC30D107C9F70E94690994
S1130E600C949A1B0C940000FC01818D228D90E05F
S1130E70805C9F4F821B91098F7399270895FC0111
S1130E80918D828D981731F0828DE80FF11D858D3B
S1130E9090E008958FEF9FEF0895FC01918D828D6E
S1130EA0981761F0828DDF01A80FB11D5D968C91BA
S1130EB0928D9F5F9F73928F90E008958FEF9FEFC5
S1130EC0089581ED98E0892B49F080E090E0892B2A
S1130ED029F00E94D10881110C9400000895FC01AE
S1130EE0848DDF01A80FB11DA35ABF4F2C91848DAF
S1130EF090E001968F739927848FA689B7892C93E4
S1130F00A089B1898C9180648C93938D848D98137E
S1130F1006C00288F389E02D80818F7D8083089547
S1130F20CF93DF93EC01888D8823C9F0EA89FB898C
S1130F30808185FD05C0A889B9898C9186FD0FC083
S1130F400FB607FCF5CF808185FFF2CFA889B98958
S1130F508C9185FFEDCFCE010E946F07E7CFDF9123
S1130F60CF910895CF92DF92FF920F931F93CF9367
S1130F70DF931F92CDB7DEB76C01DC015B969C91C9
S1130F805B975C968C915C97981307C05096ED9193
S1130F90FC915197808185FD32C0F601038D10E0EC
S1130FA00F5F1F4F0F731127F02EF601848DF81277
S1130FB011C00FB607FCF9CFD6015096ED91FC9104
S1130FC05197808185FFF1CFC60169830E946F0725
S1130FD06981EBCF838DE80FF11DE35AFF4F6083E6
S1130FE0D6015B960C935B975296ED91FC915397C7
S1130FF080818062808381E058968C930DC0D601F5
S11310005696ED91FC91579760835096ED91FC9123
S1131010519780818064808381E090E00F90DF911C
S1131020CF911F910F91FF90DF90CF900895BF92C1
S1131030CF92DF92EF92FF92CF93DF93EC016A019C
S11310407B01B22EE889F98982E08083411581EE23
S1131050580761057105A1F060E079E08DE390E047
S1131060A70196010E94721B2150310941095109BF
S11310705695479537952795211580E1380798F0BF
S1131080E889F989108260E874E88EE190E0A701AC
S113109096010E94721B215031094109510956954C
S11310A0479537952795EC85FD853083EE85FF853B
S11310B02083188EEC89FD89B082EA89FB898081BE
S11310C080618083EA89FB89808188608083EA89E2
S11310D0FB89808180688083EA89FB8980818F7D98
S11310E08083DF91CF91FF90EF90DF90CF90BF90FE
S11310F008951F920F920FB60F9211242F938F937E
S11311009F93EF93FF93E0919A01F0919B0180816B
S1131110E091A001F091A10182FD12C09081809123
S1131120A3018F5F8F732091A401821751F0E09186
S1131130A301F0E0E657FE4F958F8093A30101C011
S11311408081FF91EF919F918F912F910F900FBE0E
S11311500F901F9018951F920F920FB60F921124A3
S11311602F933F934F935F936F937F938F939F93AB
S1131170AF93BF93EF93FF938AE891E00E946F07C8
S1131180FF91EF91BF91AF919F918F917F916F915B
S11311905F914F913F912F910F900FBE0F901F9031
S11311A018958AE891E00E94340721E0892B09F41C
S11311B020E0822F089510928D0110928C0188EE08
S11311C093E0A0E0B0E080938E0190938F01A09310
S11311D09001B093910184E191E090938B0180930D
S11311E08A0185EC90E0909397018093960184ECBA
S11311F090E0909399018093980180EC90E0909313
S11312009B0180939A0181EC90E090939D018093DF
S11312109C0182EC90E090939F0180939E0186EC68
S113122090E09093A1018093A0011092A3011092E9
S1131230A4011092A5011092A60108950895AF92F9
S1131240BF92CF92DF92EF92FF920F931F93CF93AF
S1131250DF936C017B01C0E0D0E000E010E0F60118
S1131260EC0FFD1F4AE050E06281C7010E94950A1D
S11312705C016EE2C7010E94B8098A0D9B1D080F2C
S1131280191F2196C330D10551F74AE050E0F60109
S11312906581C7010E94950A800F911FDF91CF914C
S11312A01F910F91FF90EF90DF90CF90BF90AF9080
S11312B0089584E291E0909328028093270210928B
S11312C0290210922A0210922B0210922C020895E5
S11312D008950E94150D0E9468090E94FA18C1E63B
S11312E0D7E00E9495172097E1F30E946107F9CF98
S11312F0CF92DF92EF92FF920F931F93CF93DF93DE
S11313006C017A01EB01E60EF71E00E010E0CE1549
S1131310DF0561F06991D601ED91FC910190F081B6
S1131320E02DC6010995080F191FF1CFC801DF91FF
S1131330CF911F910F91FF90EF90DF90CF90089580
S11313406115710581F0DB010D900020E9F7AD0115
S113135041505109461B570BDC01ED91FC91028071
S1131360F381E02D099480E090E008950C94A009A5
S1131370DC01ED91FC910190F081E02D09940F9333
S11313801F93CF93DF93EC016DE00E94B8098C01A9
S11313906AE0CE010E94B809800F911FDF91CF91BE
S11313A01F910F9108950F931F93CF93DF93EC0137
S11313B00E94A0098C01CE010E94BF09800F911FD9
S11313C0DF91CF911F910F9108958F929F92AF92C9
S11313D0BF92CF92DF92EF92FF920F931F93CF931E
S11313E0DF93CDB7DEB7A1970FB6F894DEBF0FBE7B
S11313F0CDBF7C01C42EE52FCB01D22E19A221E052
S11314002D1510F02AE0D22E8E010F5D1F4F8D2C6A
S1131410912CA12CB12C6C2D7E2FA50194010E943E
S1131420721B8C2DD29E80191124015011098A300F
S113143010F4805D01C0895CF801808321153105B9
S11314404105510521F0C22EE32FCA01E4CFB801B2
S1131450C7010E94A009A1960FB6F894DEBF0FBE83
S1131460CDBFDF91CF911F910F91FF90EF90DF904F
S1131470CF90BF90AF909F908F900895CF92DF92BE
S1131480EF92FF920F931F93CF93DF93EC016A01C6
S11314907B012115310579F4E881F9810190F0810E
S11314A0E02D642FDF91CF911F910F91FF90EF906A
S11314B0DF90CF9009942A303105E9F477FF1AC000
S11314C06DE20E94B8098C0144275527BA014C19D2
S11314D05D096E097F092AE0CE010E94E509800FAB
S11314E0911FDF91CF911F910F91FF90EF90DF90AB
S11314F0CF9008952AE0B701A601CE01DF91CF91E4
S11315001F910F91FF90EF90DF90CF900C94E5091D
S11315102115310541F4DC01ED91FC910190F0813C
S1131520E02D642F09940C94E5099A01462F50E0AC
S113153060E070E00C94880A4F925F926F927F9201
S11315408F929F92AF92BF92CF92DF92EF92FF92CF
S11315500F931F93CF93DF93EC016A017B01B22EAB
S11315609A01AB01C701B6010E946E1B882319F0D2
S113157066E271E027C026013701E89477F82FEF7F
S11315803FEF4FE75FE7C301B2010E946E1B811179
S11315900DC02FEF3FEF4FE75FE7C301B2010E9499
S11315A0B81918161CF46AE271E00CC02FEF3FEF73
S11315B04FE75FE4C701B6010E94071B1816ACF49D
S11315C06EE271E0CE01DF91CF911F910F91FF90F8
S11315D0EF90DF90CF90BF90AF909F908F907F90CF
S11315E06F905F904F900C94A0092FEF3FEF4FE75F
S11315F05FECC701B6010E94B81987FDE1CF20E076
S113160030E0A901C701B6010E94B81987FF0AC0DA
S11316106DE2CE010E94B8098C01F7FAF094F7F854
S1131620F09402C000E010E0A12C60E070E080E0E3
S11316309FE3AB1441F020E030E040E251E40E942B
S1131640BC19A394F6CF9B01AC01C701B6010E945B
S113165054196B017C010E94291A2B013C010E9440
S1131660551A9B01AC01C701B6010E9453196B01C5
S11316707C012AE0B301A201CE010E94E509080F12
S1131680191FBB2039F062E371E0CE010E94A0096A
S1131690080F191F7B2C772041F120E030E040E255
S11316A051E4C701B6010E940B1B6B017C010E942F
S11316B0241A4B01AA2497FCA094BA2C2AE030E007
S11316C0B501A401CE010E943E0A080F191FC501ED
S11316D0B4010E94571A9B01AC01C701B6010E94D4
S11316E053196B017C017A94D6CFC801DF91CF9155
S11316F01F910F91FF90EF90DF90CF90BF90AF902C
S11317009F908F907F906F905F904F9008950C946E
S11317109C0A813039F018F0823051F0089510920B
S11317206E00089580916F008D7F80936F000895FF
S1131730809170008D7F8093700081E08093B00071
S11317408091B100887F84608093B1001092B300CF
S11317500895CF93C82F809100018C1307C0E8E649
S1131760F0E084919FEF9093000101C08FEF0E94FD
S1131770890B60E08C2FCF910C94960D1F920F92E1
S11317800FB60F9211242F933F934F935F936F9350
S11317907F938F939F93AF93BF93EF93FF93809126
S11317A0300290913102A0913202B0913302892B20
S11317B08A2B8B2B51F190912D02E0912E02F09106
S11317C02F02808189278083809130029091310299
S11317D0A0913202B0913302181619061A061B069C
S11317E0C4F48091300290913102A0913202B09100
S11317F033020197A109B109809330029093310219
S1131800A0933202B093330204C0809100010E947D
S1131810A90BFF91EF91BF91AF919F918F917F9110
S11318206F915F914F913F912F910F900FBE0F9049
S11318301F9018951F920F920FB60F9211242F9399
S11318403F934F935F936F937F938F939F93AF9344
S1131850BF93EF93FF938091340290913502892BCB
S113186029F0E0913402F09135020995FF91EF914E
S1131870BF91AF919F918F917F916F915F914F91A4
S11318803F912F910F900FBE0F901F9018951F92AC
S11318900F920FB60F9211242F933F934F935F93A0
S11318A06F937F938F939F93AF93BF93EF93FF9324
S11318B08091360290913702892B29F0E09136020B
S11318C0F09137020995FF91EF91BF91AF919F91EC
S11318D08F917F916F915F914F913F912F910F90D5
S11318E00FBE0F901F9018951F920F920FB60F9274
S11318F011242F933F938F939F93AF93BF93809122
S1131900390290913A02A0913B02B0913C0230918D
S1131910380223E0230F2D3720F40196A11DB11DB9
S113192005C026E8230F0296A11DB11D209338029D
S11319308093390290933A02A0933B02B0933C0205
S113194080913D0290913E02A0913F02B0914002ED
S11319500196A11DB11D80933D0290933E02A09378
S11319603F02B0934002BF91AF919F918F913F91FD
S11319702F910F900FBE0F901F9018952FB7F894CA
S11319806091390270913A0280913B0290913C023D
S11319902FBF08953FB7F89480913D0290913E0285
S11319A0A0913F02B091400226B5A89B05C02F3FED
S11319B019F00196A11DB11D3FBF6627782F892F0D
S11319C09A2F620F711D811D911D42E0660F771FD2
S11319D0881F991F4A95D1F70895CF92DF92EF920D
S11319E0FF92CF93DF936B017C010E94CA0CEB0141
S11319F0C114D104E104F10489F00E941E090E947B
S1131A00CA0C6C1B7D0B683E734090F381E0C81ACE
S1131A10D108E108F108C851DC4FEACFDF91CF913A
S1131A20FF90EF90DF90CF900895789484B5826012
S1131A3084BD84B5816084BD85B5826085BD85B56E
S1131A40816085BDEEE6F0E0808181608083E1E81D
S1131A50F0E0108280818260808380818160808355
S1131A60E0E8F0E0808181608083E1EBF0E0808158
S1131A7084608083E0EBF0E0808181608083EAE72A
S1131A80F0E08081846080838081826080838081B3
S1131A90816080838081806880831092C100089572
S1131AA08E3008F08E5087702091010190E4299FB8
S1131AB090011124822B80937C0080917A008064B1
S1131AC080937A0080917A0086FDFCCF8091780023
S1131AD02091790090E0922B0895833081F028F4CE
S1131AE0813099F08230A1F008958730A9F08830D0
S1131AF0B9F08430D1F4809180008F7D03C080914F
S1131B0080008F7780938000089584B58F7702C01A
S1131B1084B58F7D84BD08958091B0008F7703C014
S1131B208091B0008F7D8093B00008950F931F9330
S1131B30CF93DF931F92CDB7DEB7282F30E0F901A2
S1131B40E759FF4F8491F901E358FF4F1491F901CC
S1131B50EF56FF4F04910023C9F0882321F06983D5
S1131B600E946D0D6981E02FF0E0EE0FFF1FEB5531
S1131B70FF4FA591B4919FB7F8948C91611103C064
S1131B801095812301C0812B8C939FBF0F90DF910F
S1131B90CF911F910F910895FC0113AE14AE15AEB1
S1131BA004960C94E1120F93FC010150040F84A9D4
S1131BB096A9941718F0081728F402C0081750F0D3
S1131BC0041740F42150260F83A995A9961720F4F1
S1131BD0281720F480E007C0281720F481E0261796
S1131BE010F0F8CF81E00F910895DB011496ED9188
S1131BF0FC91159720E030E061E00994DB01149634
S1131C00ED91FC91159720E030E063E00994DB014D
S1131C101496ED91FC91159720E030E040E064E0EB
S1131C200994DB011496ED91FC91159720E030E0C6
S1131C3041E064E00994DB011496ED91FC91159761
S1131C4020E030E062E00994DB011496ED91FC9110
S1131C50159720E030E065E00994DB011496ED91DE
S1131C60FC91159766E00994AF92BF92CF92DF92F0
S1131C70EF92FF920F931F93CF93DF931F92CDB7F1
S1131C80DEB75C018B017A0180E0F7014491811198
S1131C9009C04F3FD9F1B801C5010E94240E81113A
S1131CA02EC039C04F3FB9F34E3FB9F1403F38F52C
S1131CB0403E30F04F70B801C5010E941B0E1FC09A
S1131CC0403D30F04F70B801C5010E94FE0D17C0B1
S1131CD0403CB8F0B801C50149830E94070E498110
S1131CE04295407F4E5FC42ED12CC6010E94A10FA5
S1131CF0B801C5010E94110EC6010E94A10F80E027
S1131D0006C047FDFCCF842F90E0F7CF81E0FFEFC2
S1131D10EF1AFF0ABACF80E001C081E00F90DF9193
S1131D20CF911F910F91FF90EF90DF90CF90BF90D4
S1131D30AF900895CF93DF93EC018BA5882381F0B6
S1131D4088E70E944D0F882369F08EA1811106C097
S1131D500E947E0F882331F01BA602C080E4F8CFD6
S1131D6081E001C080E0DF91CF9108951F93CF936C
S1131D70DF93142FE9016330B9F050F4613079F046
S1131D80623009F043C0FC0146A321E023A73EC012
S1131D90663001F1673059F16530C1F50EC0FC01C0
S1131DA086A50E941B0F32C0FC0116A221E023A7C6
S1131DB041112CC00E949A0F29C00E949A0E8111D1
S1131DC003C00E949A0F24C0812F0E947E0F8111AC
S1131DD01DC0F7CF0E949A0E882399F31123B1F006
S1131DE089910E947E0F882361F31150F7CF0E94DE
S1131DF09A0E882331F3112349F0FE0184910E9445
S1131E007E0F882329F021961150F5CF81E001C07F
S1131E1080E0DF91CF911F91089590914302911139
S1131E2004C08093430260934102089510924302D8
S1131E30109241020895809342021092B90084FFE7
S1131E4002C08CE001C088E48093B8000C94160FA3
S1131E50CF93DF9300D0CDB7DEB720ED37E03A83E0
S1131E6029839091BC00982391F429813A81232BF2
S1131E7049F48091420281FD0AC081E00E940D0F65
S1131E8080E006C029813A8121503109E8CF81E000
S1131E900F900F90DF91CF910895CF93C82F84EACC
S1131EA08093BC0061E080E80E94280F882309F138
S1131EB09091B900987F983021F0903111F061E051
S1131EC015C0C093BB0084E88093BC0062E080E846
S1131ED00E94280F882369F08091420281FD0BC083
S1131EE08091B900887F883131F062E082E00E94FD
S1131EF00D0F80E001C081E0CF9108958093BB0075
S1131F0084E88093BC0063E080E80E94280F882363
S1131F1069F08091420281FD0BC08091B900887FF5
S1131F20883231F063E082E00E940D0F80E0089572
S1131F3081E0089584E98093BC0064E080E10C941E
S1131F40280F2EE93FE0009729F0F9013197F1F7C6
S1131F500197F9CF0895BF92CF92DF92EF92FF924B
S1131F600F931F93CF93DF938C01EB01B42E690180
S1131F7080E14817B1F1841770F0EAE04E133CC0D9
S1131F8042E0C8010E94F50D4BEC50E0BE01C801CF
S1131F900E94340E31C0F1E14F1731F185E148134D
S1131FA02BC0EA80FB8043EC50E0C8010E94340E51
S1131FB0F7014481406BBE01C8010E94240E41E038
S1131FC0BE01C8010E941B0EAE01B801C7010E94E8
S1131FD09B13882301F140E0BE01C8010E94FE0D5D
S1131FE00BC04AEB50E002C04FEA50E0BE01C8010A
S1131FF00E94340E81E010C096014B2DBE01C80131
S1132000DF91CF911F910F91FF90EF90DF90CF90D0
S1132010BF900C94131480E0DF91CF911F910F9126
S1132020FF90EF90DF90CF90BF900895FC01E60FF2
S1132030F11D849190E0982F88273196E4918E0FBA
S1132040911D0895FC01849108950E942210882313
S113205011F0823011F486E0089583E0089580E061
S1132060089566E00C94161068E00C9416100A9615
S1132070FC01849108950B96FC0184910895BF920C
S1132080CF92DF92EF92FF920F931F93CF93DF9340
S1132090EC01E62E0C811D81C8010E942210F82E4D
S11320A08C819D810E942510B82E21E0F21619F032
S11320B0CC24CA9402C05FE0C52E8C819D810E940D
S11320C03710F82E8C819D810E943B10D82E8C8174
S11320D09D810E943410E0E6EE1538F4009729F053
S11320E0080F191F41E6F42E10C08C819D810E94B7
S11320F03110F0E4FE1538F4009729F0080F191F89
S113210031E4F32E02C00F5E1F4FDE1440F4188A30
S11321101B8A1C8A198A1A8A80E090E050C0DF1456
S1132120B0F32B2D30E0F80184918F3F19F40F5F49
S11321301F4F40C0FE1036C08C819D810E9422102A
S113214098012F5F3F4FF801882311F0823091F4FA
S113215084918B8BF90124912C8BF8013396E491B3
S1132160E88BF8013496E491E98BF8013596E49113
S1132170EA8B16C09491892F8F7082508A8B929526
S11321809F70998BF9012491822F8F708C8B2295EB
S11321902F702B8BF8013296E491E295EF70E88B67
S11321A0C8010DC0F8013296E491EC210E0F111D07
S11321B0020F131FFD1409F4AACFF394B4CFDF91D7
S11321C0CF911F910F91FF90EF90DF90CF90BF9030
S11321D008954F925F927F928F929F92AF92BF9297
S11321E0CF92DF92EF92FF920F931F93CF93DF93DF
S11321F01F92CDB7DEB72C01162F742E622F0E94CA
S11322003F106C01009709F43EC0F201848195816E
S11322100E942510F82EF201838804899188910E7A
S11322208289781A172D101B282D412F692DC20180
S11322300E94D30D882321F1CF0CD11CF7E08F0E1F
S1132240869486948694A82CB12C1715C9F0392D40
S113225076018E2D8C19881578F4F701049120E00D
S1132260412F632FC20139830E941213FFEFEF1A2B
S1132270FF0A3981385FEDCFCA0CDB1C1F5FE5CF45
S1132280F201808901C080E00F90DF91CF911F910E
S11322900F91FF90EF90DF90CF90BF90AF909F9001
S11322A08F907F905F904F9008950F931F93CF93DB
S11322B0DF9300D01F92CDB7DEB78C01DC015596B9
S11322C0ED91FC9156972B834A83698309954A8142
S11322D0480F2B816981C8010F900F900F90DF91F7
S11322E0CF911F910F910C94E910DC0114968D91FC
S11322F09C911597009709F43FC057962C915797D6
S1132300FC01211108C03596E4915896EC93589736
S1132310FC013C9611C0213041F43F96E49158965B
S1132320EC935897FC01709607C03D96E49158963B
S1132330EC935897FC013E96849159968C93599747
S113234058968C915897992787FD909559962C917A
S11323505997821B910927FD93955A962C915A9768
S1132360203441F0829FC0011124E6E096958795C0
S1132370EA95E1F75B968C9308952FE230E1FC0136
S1132380368B258B0895CF93DF93EC018C819D814F
S11323908617970749F07D836C83CE010E947511DF
S11323A08FE290E19E8B8D8BDF91CF9108951F93E7
S11323B0CF93DF93EC011D821C821F821E8219863B
S11323C081E0888782E28A871F861E8680E090E00B
S11323D02FEFFE01E80FF91F23A301968E3091051C
S11323E0C1F711E018A3CE010E94BD111F8B188EF6
S11323F0198E80E48A8F1B8E8FE495E19AAB89ABAA
S1132400DF91CF911F910895DB01ED91FC91099427
S1132410EF92FF921F93CF93DF9300D0CDB7DEB737
S11324207C01DC01D196ED91FC91D29782E0698325
S11324307A83099520E030E04AE069817A81C70116
S11324400E940412182FD701D196ED91FC91D297D6
S113245083E00995D701D196ED91FC91D29780E064
S11324600995812F0F900F90DF91CF911F91FF90CD
S1132470EF9008950F931F93CF93DF93EC018B019B
S1132480E9A9FAA982E00995E9A9FAA981E00995DF
S113249020E030E044E1B801CE010E9404129E0124
S11324A02D5C3F4F47E1B801CE010E940412E9A917
S11324B0FAA980E0DF91CF911F910F910994FF92C7
S11324C00F931F93CF93DF93EC018B01E9A9FAA932
S11324D082E00995E9A9FAA981E0099520E030E0B4
S11324E045E1B801CE010E940412F82E882341F080
S11324F09E012D5C3F4F47E1B801CE010E940412BA
S1132500E9A9FAA980E009958F2DDF91CF911F9158
S11325100F91FF900895CF93DF931F92CDB7DEB74D
S11325209E012F5F3F4F46E40E94041289810F9061
S1132530DF91CF910895CF93DF931F92CDB7DEB78C
S11325409E012F5F3F4F47E40E94041289810F9040
S1132550DF91CF91089520E030E048E40C94041218
S1132560CF93DF93EC016A817B810E948B12888375
S11325706A817B81CE010E949B1289836A817B815F
S1132580CE010E94AB128B879E012D5C3F4F6A8166
S11325907B8147E1CE01DF91CF910C940412CF935C
S11325A0DF93EC016A817B810E940812882329F061
S11325B0CE010E94B01281E001C080E0DF91CF9192
S11325C00895EF92FF920F931F93CF93DF931F927F
S11325D0CDB7DEB77C018B0149830E94D711F70187
S11325E013830283498146A7C7010F90DF91CF91DE
S11325F01F910F91FF90EF900C94CF12FC01628118
S113260073810C943A12CF93DF93EC01EE85FF852E
S1132610309709F009956A817B81CE01DF91CF91D2
S11326200C945F120F93FC0182819381648F458F18
S1132630278F068F9F01245E3F4F4BE3BC01CF01E0
S11326400F910C940412FC0160A3089546954695DD
S113265030E2439FF00111242695269526952E2BD2
S1132660FC0120A3469546954695687F462B41A3D9
S11326700895FC011282808181508383148208951D
S1132680FC0120818281820F82839181891760F409
S113269084818F5F84838381820F891710F08FEF89
S11326A0890F838381E0089580E00895DC01169604
S11326B0ED91FC91179715968C919F01280F311D70
S11326C0C9011192E817F907E1F70895FC0191E0B7
S11326D08381861708F490E021E0461708F020E093
S11326E0322F392B81E05281451708F480E083238F
S11326F09223892B0895DC01FB01108212968C91A0
S11327001297818315968C91159781508283139625
S11327108C9183830895FB0141812381213029F029
S1132720233031F468EF640F04C0642F485F01C0A4
S1132730642F0C946613FC01CB01BA012681378106
S113274045810C942D0EDC011696ED91FC911797A2
S113275012968C91481B477081E090E0042E01C0D2
S1132760880F0A94EAF7E60FF11D3081222311F055
S1132770832B02C08095832380830895FB014181CC
S1132780DC0112962C911297421768F013962C9143
S11327901397241740F0608115962C91621718F452
S11327A024810C94A3130895CF92DF92FF920F9388
S11327B01F93CF93DF9300D0CDB7DEB78C016B01AD
S11327C0FB01F2808381813039F070F0823039F07E
S11327D0833041F020E001C021E030E007C020E078
S11327E03FEF04C02FEFF9CF20E031E0F7FE08C03F
S11327F0B601C80129833A830E94BE133A81298114
S1132800F6018081830F80838181820F8183FF0C95
S113281069F70F900F90DF91CF911F910F91FF9067
S1132820DF90CF9008950F931F93CF93DF93890187
S1132830FB01C281D3814233F9F068F4453109F1D7
S1132840473141F1443181F5CE010E945613CE0146
S11328500E94391329C0463411F1473411F14B3326
S113286019F5B901CE010E948B138823E9F0B80150
S1132870CE010E94D41318C0B901CE010E94BE1328
S113288013C0CE010E944013882381F0CE010E9420
S113289056130AC0B901CE010E947B1305C08D8175
S11328A001C08981F801808381E001C080E0DF916B
S11328B0CF911F910F910895AF92BF92DF92EF9243
S11328C0FF920F931F93CF93DF931F92CDB7DEB781
S11328D05C01E62EF42E122F322FD62ED20E6D2D41
S11328E0631B383050F00FEF20E04F2DC5013983C2
S11328F00E94121339813850F2CF612F687F6E0D18
S1132900177079F087E081278F5F87700FEF10E0F1
S113291001C0000F8A95EAF720E04F2DC5010E94FF
S113292012130F90DF91CF911F910F91FF90EF90B1
S1132930DF90BF90AF900895AF92BF92DF92EF9275
S1132940FF920F931F93CF93DF931F92CDB7DEB700
S11329505C01F62EE42E122F322FD42ED20E4D2DE2
S1132960431B383050F00FEF21E06F2DC501398340
S11329700E94121339813850F2CF412F487F4E0DF7
S1132980177079F087E081278F5F87700FEF10E071
S113299001C0000F8A95EAF721E06F2DC5010E945E
S11329A012130F90DF91CF911F910F91FF90EF9031
S11329B0DF90BF90AF900895DF92EF92FF920F9354
S11329C01F93CF93DF93EC01162FF42EE22ED02E1B
S11329D00E94D30D882319F12E2D4F2D612FCE0186
S11329E00E945C142D2D4F2D612FCE010E949C144A
S11329F06FEF6E0D610F2D2D4F2DCE010E949C1493
S1132A004FEF4D0D4F0D2E2D612FCE01DF91CF9144
S1132A101F910F91FF90EF90DF900C945C14DF9165
S1132A20CF911F910F91FF90EF90DF900895EF9257
S1132A30FF920F931F93CF93DF93EC01F62EE22EB8
S1132A40142F040F2E2D412F6F2DCE010E945C14E4
S1132A501F5F0113F7CFDF91CF911F910F91FF906B
S1132A60EF900895DF92EF92FF920F931F93CF930D
S1132A70DF93EC01162FF42EE22E0E94D30D88234F
S1132A8031F02E2D4F2D612FCE010E941715DF91AD
S1132A90CF911F910F91FF90EF90DF9008950895CB
S1132AA0613298F420913103243089F46093E60272
S1132AB0FC0188EE92E0DC012A2F281B261718F46B
S1132AC021912D93F9CF80E0089581E0089582E06B
S1132AD0089585ED8093BC008091BC0084FDFCCFFB
S1132AE010923103089585EC8093BC001092310359
S1132AF008951F920F920FB60F9211242F933F93B4
S1132B004F935F936F937F938F939F93AF93BF93F1
S1132B10EF93FF938091B900887F803609F49CC0BD
S1132B2068F5883209F45BC090F4803109F454C02C
S1132B3038F4882309F4F5C0883009F44DC0F5C091
S1132B40883109F44CC0803209F45DC0EEC0803491
S1132B5009F468C048F4803309F455C0883309F097
S1132B60E4C08093C402A8C0803509F44FC08835FE
S1132B7009F45DC0883409F0D8C0D5C0883909F497
S1132B80C6C0A8F4883709F467C038F4883609F455
S1132B9063C0803709F460C0C8C0883809F4B7C07E
S1132BA0803909F45FC0803809F0BFC05BC0803B46
S1132BB009F485C038F4803A09F466C0883A09F407
S1132BC07EC0B3C0803C09F4A6C0883C09F4A3C00D
S1132BD0883B09F489C0A9C08091300310C090914A
S1132BE0090380910803981770F5E091090381E0C7
S1132BF08E0F80930903F0E0E65FFC4F80818093A1
S1132C00BB0085EC85C08093C4028DC0E0910903AC
S1132C1081E08E0F809309038091BB00F0E0E65FB2
S1132C20FC4F808390910903809108036DC0E0916B
S1132C30090381E08E0F809309038091BB00F0E0CB
S1132C40E65FFC4F808380912F0381116CC081E08B
S1132C5080932E0384EA60C083E080933103109252
S1132C60C502CFCF8091C502803208F050C0E091F8
S1132C70C50281E08E0F8093C5028091BB00F0E015
S1132C80EA53FD4F8083BDCF8091C502803230F47A
S1132C90E091C502F0E0EA53FD4F10820E946915ED
S1132CA06091C50270E0E0912A03F0912B0386EC59
S1132CB092E009951092C5020E94731536C084E013
S1132CC0809331031092E7021092E602E0912C0304
S1132CD0F0912D0309958091E602811105C081E0F0
S1132CE08093E6021092E802E091E70281E08E0F01
S1132CF08093E702F0E0E851FD4F80818093BB00B0
S1132D009091E7028091E602981708F47ACF85E85B
S1132D108093BC000AC085EC8093BC001092310300
S1132D2004C01092C4020E946915FF91EF91BF91F3
S1132D30AF919F918F917F916F915F914F913F914F
S1132D402F910F900FBE0F901F90189580916103E3
S1132D5090E020916203821B9109089520916203FF
S1132D6080916103281750F4E22FF0E0ED59FC4FF5
S1132D70808190E02F5F2093620308958FEF9FEF8F
S1132D800895E091620380916103E81730F4F0E064
S1132D90ED59FC4F808190E008958FEF9FEF0895E7
S1132DA00895CF92DF92EF92FF920F931F93CF93E8
S1132DB0DF937C01CB018A0120913E03222389F019
S1132DC0EB016B01C40ED51ECC15DD0569F06991CC
S1132DD0D701ED91FC910190F081E02DC701099597
S1132DE0F3CF642F0E945015C801DF91CF911F913A
S1132DF00F91FF90EF90DF90CF900895CF93DF93E2
S1132E001F92CDB7DEB7698320913E032223D1F010
S1132E1020913F03203240F021E030E0FC01338375
S1132E20228380E090E015C080914003E82FF0E019
S1132E30EF5BFC4F998190838F5F80934003809375
S1132E403F0305C061E0CE0101960E94501581E068
S1132E5090E00F90DF91CF910895FC0113821282CC
S1132E6048EE53E060E070E04483558366837783E3
S1132E7088E391E091838083089582E393E00C9446
S1132E802D17CF93DF93EC01262F4CAD6BAD049639
S1132E900E9455112BAD992787FD9095820F911DA6
S1132EA08BAF81E090E0DF91CF910895CF92DF92D4
S1132EB0EF92FF920F93CF93DF93C82FD62F690120
S1132EC07A012EE7280F0CE0462F682F8FE893E055
S1132ED00E94DC1420E030E044EF52E4C701B60164
S1132EE00E940B1B0E94291A262F42E04D0F62E01C
S1132EF06C0F08E08FE893E00E943215DF91CF91C8
S1132F000F91FF90EF90DF90CF9008951F920F9252
S1132F100FB60F9211248F938091790087BD8F9102
S1132F200F900FBE0F901F9018952F923F924F92C3
S1132F305F926F927F928F929F92AF92BF92CF9245
S1132F40DF92EF92FF920F931F93CF93DF93CDB74E
S1132F50DEB728970FB6F894DEBF0FBECDBF0E9430
S1132F60BE0C6D837E838F8398878FE00E94500D03
S1132F708C018EE00E94500DBC0180E090E00E9424
S1132F80551A2AE038E240EA5BE30E940B1B20E07A
S1132F9030E040E250E40E94531922E03BE247E86B
S1132FA05DE30E94BC196B017C01B80180E090E0F4
S1132FB00E94551A2AE038E240EA5BE30E940B1BA8
S1132FC02AE434E448E75EE30E94BC194B015C0147
S1132FD0A70196010E940B1B69837A838B839C83D0
S1132FE020E030E041E655E40E94BC199B01AC01AD
S1132FF060918703709188038091890390918A037B
S11330000E94541960938703709388038093890303
S113301090938A0320E030E041E655E4C701B6010D
S11330200E94BC199B01AC016091830370918403DD
S113303080918503909186030E94541960938303C1
S11330407093840380938503909386038091C803CF
S1133050811107C081E08093C8038FE893E00E9448
S1133060CF128FE893E00E94FE120AE037E1332E7C
S113307044E2242E11E361EF70E08FE893E00E94B4
S1133080C3111092C6030093C7036EE571E08BE889
S113309093E00E94B60922E030E0B501A4018BE878
S11330A093E00E94870B1092C6033092C70362E636
S11330B071E08BE893E00E94B60922E030E0B701AA
S11330C0A6018BE893E00E94870B1092C60320921E
S11330D0C70366E671E08BE893E00E94B60922E03C
S11330E030E049815A816B817C818BE893E00E94B6
S11330F0870B1092C6031093C7036AE671E08BE84E
S113310093E00E94B6094091830350918403609137
S113311085037091860322E030E08BE893E00E94FF
S1133120870B20E030E040EF51E4C701B6010E9474
S1133130BC192B013C0120E030E0A901C701B60114
S11331400E94B81987FF04C077FA709477F87094D6
S1133150A301920164E380E00E9456178FE893E094
S11331600E940313811187CF6FE671E08AE891E032
S11331700E94B60922E030E0B501A4018AE891E09A
S11331800E94870B61E771E08AE891E00E94B6092A
S113319022E030E0B701A6018AE891E00E94870BA3
S11331A00E94BE0C8B019C016D817E818F8198856C
S11331B068517C4F8F4F9F4F601B710B820B930B99
S11331C028960FB6F894DEBF0FBECDBFDF91CF9126
S11331D01F910F91FF90EF90DF90CF90BF90AF9031
S11331E09F908F907F906F905F904F903F902F9023
S11331F00C94ED0C64EB70E080E090E00E94ED0C28
S113320026E040E05BE460E070E08AE891E00E9440
S1133210170864E170E080E090E00E94ED0C81E02A
S11332208093C8038FE893E00E94CF1280919A03A1
S1133230883211F46FEF03C0823031F463E08FE819
S113324093E00E9423130DC0813011F461E0F7CFA5
S1133250803339F42FEF4FEF6FEF8FE893E00E9444
S1133260261363E771E08AE891E00E94D3090E9483
S11332709517FDCFCF93DF9310928E0310928D0399
S1133280CBE8D3E08DE791E09983888340E062E066
S113329071E0CE010E94CC0D85E891E0998388838A
S11332A0DF91CF9108955058BB27AA270ED075C13E
S11332B066D130F06BD120F031F49F3F11F41EF44D
S11332C05BC10EF4E095E7FB51C1E92F77D180F3A0
S11332D0BA17620773078407950718F071F49EF50F
S11332E08FC10EF4E0950B2EBA2FA02D0B01B9015E
S11332F090010C01CA01A0011124FF27591B99F068
S1133300593F50F4503E68F11A16F040A22F232F73
S1133310342F4427585FF3CF469537952795A795C3
S1133320F0405395C9F77EF41F16BA0B620B730B6A
S1133330840BBAF09150A1F0FF0FBB1F661F771FDB
S1133340881FC2F70EC0BA0F621F731F841F48F490
S1133350879577956795B795F7959E3F08F0B3CF16
S11333609395880F08F09927EE0F97958795089500
S1133370D9D008F481E008950CD00FC107D140F0F2
S1133380FED030F021F45F3F19F0F0C0511139C183
S1133390F3C014D198F39923C9F35523B1F3951BC2
S11333A0550BBB27AA2762177307840738F09F5F62
S11333B05F4F220F331F441FAA1FA9F333D00E2ED1
S11333C03AF0E0E830D091505040E695001CCAF73E
S11333D029D0FE2F27D0660F771F881FBB1F261703
S11333E037074807AB07B0E809F0BB0B802DBF01D6
S11333F0FF2793585F4F2AF09E3F510568F0B6C0EF
S113340000C15F3FECF3983EDCF3869577956795B2
S1133410B795F7959F5FC9F7880F911D9695879586
S113342097F90895E1E0660F771F881FBB1F6217A5
S113343073078407BA0720F0621B730B840BBA0B63
S1133440EE1F88F7E095089504D06894B111D9C0AF
S11334500895BCD088F09F5790F0B92F9927B751A1
S1133460A0F0D1F0660F771F881F991F1AF0BA9544
S1133470C9F712C0B13081F0C3D0B1E00895C0C023
S1133480672F782F8827B85F39F0B93FCCF386953A
S113349077956795B395D9F73EF490958095709597
S11334A061957F4F8F4F9F4F0895E89409C097FB14
S11334B03EF490958095709561957F4F8F4F9F4F07
S11334C09923A9F0F92F96E9BB279395F69587954B
S11334D077956795B795F111F8CFFAF4BB0F11F40E
S11334E060FF1BC06F5F7F4F8F4F9F4F16C08823B5
S11334F011F096E911C0772321F09EE8872F762FEB
S113350005C0662371F096E8862F70E060E02AF02B
S11335109A95660F771F881FDAF7880F9695879517
S113352097F90895990F0008550FAA0BE0E8FEEFEC
S113353016161706E807F907C0F012161306E40773
S1133540F50798F0621B730B840B950B39F40A266C
S113355061F0232B242B252B21F408950A2609F44A
S1133560A140A6958FEF811D811D089597F99F674E
S113357080E870E060E008959FEF80EC08950024F7
S11335800A941616170618060906089500240A94C4
S113359012161306140605060895092E0394000C4A
S11335A011F4882352F0BB0F40F4BF2B11F460FFD9
S11335B004C06F5F7F4F8F4F9F4F089557FD905802
S11335C0440F551F59F05F3F71F04795880F97FBE3
S11335D0991F61F09F3F79F087950895121613069D
S11335E01406551FF2CF4695F1DF08C016161706CC
S11335F01806991FF1CF8695710561050894089501
S1133600E894BB2766277727CB0197F908958ADFCB
S113361008F48FEF08950BD0C0CFB1DF28F0B6DFE8
S113362018F0952309F0A2CFA7CF1124EACFC6DF63
S1133630A0F3959FD1F3950F50E0551F629FF001C1
S1133640729FBB27F00DB11D639FAA27F00DB11D1A
S1133650AA1F649F6627B00DA11D661F829F2227A3
S1133660B00DA11D621F739FB00DA11D621F839F2A
S1133670A00D611D221F749F3327A00D611D231F00
S1133680849F600D211D822F762F6A2F11249F574E
S113369050408AF0E1F088234AF0EE0FFF1FBB1F71
S11336A0661F771F881F91505040A9F79E3F510510
S11336B070F05CCFA6CF5F3FECF3983EDCF38695C9
S11336C077956795B795F795E7959F5FC1F7FE2BBB
S11336D0880F911D9695879597F9089523DF880B98
S11336E0990B0895A1E21A2EAA1BBB1BFD010DC064
S11336F0AA1FBB1FEE1FFF1FA217B307E407F5079E
S113370020F0A21BB30BE40BF50B661F771F881F79
S1133710991F1A9469F760957095809590959B010F
S1133720AC01BD01CF010895EE0FFF1F0590F49188
S10B3730E02D0994F894FFCF89
S1133738FF01AB0F0801B60E0840000000804402E8
S113374800000000B207780934074D073F079007C7
S1133758000000001F096E616E00696E66006F76D6
S113376866002E0000000000FE16D116A616AE163E
S1133778C116D016626174746572795F61683A2003
S113378800746573745F666C6F61743A2000563A0E
S11337982000493A2000573A200041483A20005670
S11337A800490073657475700000000000411778C3
S10D37B80900000000411778090021
S9030000FC
